:020000040800F2
:10000000880B002065740008610F0008630F00086A
:10001000670F00086B0F00086F0F0008000000005A
:10002000000000000000000000000000730F000846
:10003000750F000800000000770F0008790F000816
:100040007F7400087F7400087F7400087F740008C4
:100050007F7400087F7400087F7400087F740008B4
:100060007F7400087F7400087F7400087F740008A4
:100070007F7400087F7400087F7400087F74000894
:100080007F7400087F7400087F7400087F74000884
:100090007F7400087F7400087F7400087F74000874
:1000A0007F7400087F7400087F7400087F74000864
:1000B0007F7400087F7400087F7400087F74000854
:1000C0007F7400087F7400087F7400087F74000844
:1000D0007F740008CB7300087F7400087F740008E9
:1000E0007F7400087F7400087F7400087F74000824
:1000F0007F7400087F7400087F7400087F74000814
:100100007F7400087F7400087F7400087F74000803
:100110007F7400087F7400087F7400087F740008F3
:100120007F7400087F7400087F7400087F740008E3
:100130007F7400087F7400087F7400087F740008D3
:100140007F7400087F7400087F7400087F740008C3
:100150007F7400087F7400087F7400087F740008B3
:100160007F7400087F7400087F7400087F740008A3
:100170007F7400087F7400087F7400087F74000893
:100180007F7400087F74000800F002F800F043F864
:100190000AA090E8000C82448344AAF10107DA45E2
:1001A00001D100F038F8AFF2090EBAE80F0013F0F1
:1001B000010F18BFFB1A43F001031847F0A300001A
:1001C00010A40000103A24BF78C878C1FAD85207AA
:1001D00024BF30C830C144BF04680C6070470000C1
:1001E0000023002400250026103A28BF78C1FBD840
:1001F000520728BF30C148BF0B607047782908F00C
:100200008983002070471FB508F0C8FD08F0C3FBC4
:100210001FBD10B510BD08F053FC1146FFF7F3FFEA
:1002200000F018F908F071FC03B4FFF7F2FF03BC0B
:1002300007F06CF80B49D1F800C04A685CF8043B41
:100240001068184442F8040B8C4528BFA1F1DC0C5F
:100250008A4228BFA1F1DC02C1F800C04A6020F048
:1002600000407047200500207CB505460C46002064
:10027000FB490880012C04D14FF6FF70F949088032
:1002800003E048F23040F7490880F7A010210B4600
:10029000C822CDE900104FF496718C2006F0DFFEE5
:1002A000A5B9012C02D14FF4FC6001E048F23040C6
:1002B000EC490880F1A010210B469622CDE90010F0
:1002C0004FF4A571B42006F0CAFE0EE048F23040AB
:1002D000E4490880ECA010210B469622CDE90010DD
:1002E0004FF4A571B42006F0BAFE012D14D1012CF3
:1002F00002D14FF6E07001E048F23040D949088061
:10030000E4A010210B469622CDE900104FF4B47101
:10031000B42006F0A4FE0EE048F23040D149088037
:10032000DFA010210B469622CDE900104FF4B471E6
:10033000B42006F094FE022D14D1012C02D14FF40A
:10034000784001E048F23040C6490880D7A010212B
:100350000B469622CDE900104FF4C371B42006F08D
:100360007EFE0EE048F23040BE490880D2A0102147
:100370000B469622CDE900104FF4C371B42006F06D
:100380006EFE7CBD7CB505460C460020B449088055
:10039000012C04D14FF6FF70B249088003E048F207
:1003A0003040B0490880C7A010210B46C822CDE9D3
:1003B00000104FF4DC718C2006F051FEA5B9012C21
:1003C00002D14FF4FC6001E048F23040A5490880BA
:1003D000C1A010210B46C822CDE900104FF4EB71EB
:1003E000A02006F03CFE0EE048F230409D49088017
:1003F000BEA010210B46C822CDE900104FF4EB71CE
:10040000A02006F02CFE012D14D1012C02D147F6BC
:10041000FF7001E048F2304092490880B8A01021F6
:100420000B46C822CDE900104FF4FA71A02006F067
:1004300016FE0EE048F230408A490880B5A010212F
:100440000B46C822CDE900104FF4FA71A02006F047
:1004500006FE7CBD8AB00024A2464FF0030B40F29A
:10046000E73009904FF01408012008904FF0000980
:10047000002007900025069042F20F7005900020A2
:10048000049003900026A82006F0BEFE4FF4E13051
:1004900006F049FF02F096FE06F014FE06F094FE08
:1004A00001F0B0FF01F046FE4FF4967006F00EFF2B
:1004B000002006F025FE00BF002002F062FC0020B4
:1004C00002F04EFE00206649088052E30A2006F042
:1004D000FDFE002006F014FE044693480078012833
:1004E00026D10421914807F035F908BB10218F4827
:1004F00007F030F9E0B902208B49087001208C49DF
:100500000860502006F0E2FE00208A49C1F8A002EF
:1005100002E00A2006F0DAFE0421844807F01AF906
:100520000028F6D01021814807F014F90028F0D0F7
:100530007D48007858457DD07B480078022846D118
:1005400048F230404749088040F2F51340F27D12EE
:1005500040F22B11632006F0CDFB00204FF4FA731C
:100560004FF4BE724FF496710090642006F0DEFAEC
:100570004FF6E0703B4908800020394908806EA0A2
:1005800018210B469622CDE900104FF4A071B92036
:1005900006F065FD4FF6FF703249088069A0102112
:1005A0000B464FF48272CDE9001040F281116E20AB
:1005B00006F055FD69A010210B464FF48272CDE97B
:1005C000001040F2A9116E2006F049FD67E256487E
:1005D0000078012810D1BBF1020F0DD1002040F2AC
:1005E000F51340F27D1240F22B110090632006F0CB
:1005F0009DFA01F063FA52E2002002F0B1FD4A4890
:10060000007800282BD100264FF478401549088047
:1006100057A018210B46C822CDE9001078218C2064
:1006200006F01DFD4FF6E0700E49088053A0102122
:100630000B4600E036E2C822CDE90010B421AA2022
:1006400006F00DFD102003234A46B4210090E62059
:1006500006F04DFC4FF6FF700249088092E0FBE087
:10066000240000202200002053656C656374204440
:100670006966666963756C74793A00003E202045AE
:1006800041535920203C000020202045415359204F
:10069000202000003E204D454449554D203C00009F
:1006A00020204D454449554D202000003E20204843
:1006B00041524420203C0000202020484152442048
:1006C0002020000053656C6563742047616D6520D0
:1006D0004D6F64653A0000003E2053494E474C453B
:1006E00020504C41594552203C00000020205349E5
:1006F0004E474C4520504C415945522020000000A7
:100700003E2020424154544C45204D4F444520202A
:100710003C000000202020424154544C45204D4FC5
:10072000444520202000000014000020001002405A
:10073000A0824242008042422D2050415553454400
:10074000202D0000574B5F5550203A2052455355FD
:100750004D4520284B656570290000004B455931F7
:1007600020203A204558495420284261636B2900D3
:10077000534E414B452047414D450000424553549F
:100780003A200000FBA010210B464FF49672CDE9F1
:100790000010F0216E2006F062FC0121FB48007879
:1007A000FFF762FD0021FA480078FFF7EBFD48F201
:1007B0003040F8490880F8A010210B464FF496729B
:1007C000CDE900104FF40771782006F048FCFCA03A
:1007D00010210B464FF49672CDE900104FF40C71C6
:1007E000782006F03CFC4FF6FF70EA490880FEA036
:1007F00010210B464FF49672CDE9001040F26221B1
:10080000642006F02CFC48F23040E2490880FAA04F
:1008100010210B464FF49672CDE9001040F276217C
:10082000642006F01CFCFBA010210B464FF49672CE
:10083000CDE9001040F28A21642006F010FCFEA0F1
:1008400010210B464FF49672CDE9001040F29E2124
:10085000642006F004FC22E1FD48007801281AD14A
:1008600048F23040CB4908804FF43E734FF4E472B5
:100870002721172006F03EFA01F059F84FF0000A40
:1008800040F2E7300990002007900025069042F2E0
:100890000F70059003E1EE4800780328DBD1BC48D7
:1008A000007878BBEB48006848452BD9E9480088B8
:1008B0001FFA80F9484601F092FD01200790E649B1
:1008C00008603C2006F002FD0020E449C1F8A002C7
:1008D0003C2006F0FBFC0120DF4908603C2006F0CC
:1008E000F5FC0020DD49C1F8A0023C2006F0EEFC3A
:1008F0000120D94908603C2006F0E8FC0020D749D7
:10090000C1F8A0024FF47840A2490880D4A0182171
:100910000B46C822CDE90010A0218C2006F09FFBD9
:100920009B48007800285CD14FF6FF7099490880F9
:10093000CEA010210B46C822CDE90010DC21A0205A
:1009400006F08DFB102003230090C248DC210268D2
:10095000084606F0CCFA3C20B5FBF0F004903C20B1
:10096000B5FBF0F100FB11500390C2A010210B4623
:10097000C822CDE900104FF48271A02006F06FFB71
:100980001020022300904FF48271DC20049A06F0BC
:10099000AEFAAFF2C02010210B460A22CDE90010BA
:1009A0004FF48271EC2006F05AFB102002230090D5
:1009B0004FF48271F420039A06F099FA0798002800
:1009C0005DD04FF6E07073490880ACA010210B4653
:1009D000C822CDE900104FF49B718C2006F03FFB3C
:1009E0004DE04FF6FF706B490880A7A010210B4621
:1009F000C822CDE90010DC21A02006F030FB102039
:100A0000032300909348DC210268084606F06FFA41
:100A10009F48007801280FD14FF4FC605D490880A1
:100A20009CA018210B46DC22CDE900104FF4877101
:100A30008C2006F014FB22E09548007802280FD1A4
:100A400047F6FF705349088097A018210B46DC2217
:100A5000CDE900104FF487718C2006F000FB0EE00A
:100A60004FF6E0704B49088094A018210B46C8222D
:100A7000CDE900104FF48771A02006F0F0FA4FF690
:100A8000FF704449088090A010210B464FF49672E5
:100A9000CDE900104FF4BE716E2006F0E0FA6C480C
:100AA00090F800B06A48007830B101285CD0022884
:100AB0005BD003285AD130E2022C21D10EB901209B
:100AC00000E0002006460EB9012000E000200146AB
:100AD0002E480078FFF7C8FB012E01D1012000E06D
:100AE000002001462A480078FFF74CFC01205A49B3
:100AF00008601E2006F0EAFB00205849C1F8A00259
:100B0000032C2DD18EB92148007818B902201F4935
:100B1000087004E01D480078401E1C49087001213F
:100B20001A480078FFF7A0FB10E01948007818B9C0
:100B300001201749087004E015480078401E144948
:100B40000870012112480078FFF71CFC012042497F
:100B500008601E2006F0BAFB00204049C1F8A00240
:100B6000012C05D11EB9BBE0EFE0B8E1DBE1CAE042
:100B7000E5E0D9E1507265737320574B5F55502003
:100B8000746F20537461727400000000150000201F
:100B90001600002022000020574B5F5550203A20BD
:100BA0004D6F76652055502020202020204B455940
:100BB000313A204D6F766520444F574E00000000BB
:100BC0004B45593220203A204D6F7665204C4546E2
:100BD00054202020204B4559303A204D6F76652017
:100BE00052494748540000004D656E7520436F6EB2
:100BF00074726F6C733A00004B4559322F4B455954
:100C0000303A204368616E67652053656C65637494
:100C1000696F6E004B45593120202020203A205327
:100C2000776974636820466F63757320284469662A
:100C3000662F4D6F64652900574B5F55502020206B
:100C4000203A2053746172742047616D6500000082
:100C5000140000201C000020A0824242008042427A
:100C600047414D45204F56455200000053636F7277
:100C7000653A200054696D653A2020004E455720A2
:100C80005245434F52442100546F74616C3A200026
:100C90002000002052454420504C415945522057D5
:100CA000494E532100000000424C554520504C4114
:100CB0005945522057494E53210000004452415794
:100CC0002047414D452100005072657373204B450C
:100CD000593020746F205265737461727400000083
:100CE00092480078022803D100209049087004E05F
:100CF0008E480078401C8D49087001218B4800788F
:100D0000FFF7B2FA11E08A480078012803D10020E9
:100D10008749087004E086480078401C84490870C0
:100D2000012183480078FFF72DFB012081490860ED
:100D30001E2006F0CBFA00207F49C1F8A002042C47
:100D400002D101207D490870EDE0042C02D1012080
:100D500000F047FD032C02D1032000F042FD022CDD
:100D600002D1022000F03DFD012C02D1042000F050
:100D700038FD73480168099881425FD07048006867
:100D80000A21B0FBF1F76948007858B978080F28B4
:100D900002D2C0F1190801E04FF00A08C8F11A01A7
:100DA000089118E06148007801280AD10D2F02D27D
:100DB000C7F1120801E04FF00508C8F113000890D0
:100DC00009E0082F02D2C7F10B0801E04FF0030839
:100DD000C8F10C0008904FF6FF705A4908800020B7
:100DE00059490880AFF27C1010210B466422CDE9EE
:100DF00000100C211E2006F032F910200323009071
:100E00004F480C2102685A2006F071F84FA01021BB
:100E10000B466422CDE900100C214FF4967006F0C9
:100E20001EF91020022300900C214FF4B970089A8B
:100E300006F05DF842480068099000BF06980A3045
:100E400006900698B0F57A7F02D3002006906D1CBC
:100E5000059885423AD03C20B5FBF0F7B5FBF0F1A0
:100E600000FB115002904FF6FF70364908800020B9
:100E70003549088042F20F710598884214D136A096
:100E800010210B466422CDE900100C21962006F0BB
:100E9000E6F8AFF2C07010210B460A22CDE900102F
:100EA0000C21D62006F0DBF8102002233A460C2154
:100EB0000090C62006F01BF81020022300900C21A1
:100EC000DE20029A06F013F8059500BF0AF1010A28
:100ED000C24503D34FF0000A00F031FE23E0042C9A
:100EE0000BD1012015490870124908601E2006F038
:100EF000EDF900201049C1F8A002022C0CD100200D
:100F00000E49087001200B4908601E2006F0DEF92A
:100F100000200949C1F8A00205E0012C02D10020FF
:100F20000649087000BF00BFFFF7D0BA15000020C7
:100F300016000020A082424200804242140000209D
:100F40001C00002022000020240000205370656552
:100F5000643A204C0000000054494D453A200000FE
:100F6000704700BFFEE700BFFEE700BFFEE700BF1F
:100F7000FEE7704770477047704700000CB50020CF
:100F8000019000907648006840F480307449086011
:100F900000BF7348006800F4003000900198401CC6
:100FA0000190009818B90198B0F5A04FF1D16C48A4
:100FB000006800F4003010B10120009001E0002032
:100FC00000900098012846D165484030006840F004
:100FD00080506349403108606248006840F44040F6
:100FE000604908605E48083000685D490831086063
:100FF0000846006840F4004008600846006840F475
:10100000A05008605848091F0860081F006840F099
:101010008070091F086000BF5148006800F0007030
:101020000028F9D040F20570504908604C4808305B
:10103000006820F003004A4908310860084600684B
:1010400040F00200086000BF45480830006800F02A
:101050000C000828F8D10CBD10B54548006840F4D4
:101060007000434908603E48006840F001003C4978
:10107000086000203A4908310860394800683D4955
:101080000840374908603C48091D0860081F00688F
:1010900020F48020091F0860002031490C310860CD
:1010A000FFF76CFF4FF0006031498039086010BDD8
:1010B00070B500200022022300240221284D0835AB
:1010C0002D6805F00C0020B1042806D0082834D182
:1010D00007E02A4D2A4E356033E02A4D284E356010
:1010E0002FE01F4D2D1D2D68C5F380541C4D2D1D67
:1010F0002D6805F03F0154B1224DB5FBF1F5184EB6
:10110000361D3668C6F3881605FB06F209E01B4D4E
:10111000B5FBF1F5124E361D3668C6F3881605FB91
:1011200006F20F4D2D1D2D68C5F301456D1C6B009A
:10113000B2FBF3F5124E356003E0104D104E3560F2
:1011400000BF00BF064D08352D68C5F303150E4ED0
:10115000705D0B4D2D68C540094E356070BD0000B7
:10116000003802400070004008544007003C024034
:1011700088ED00E0FFFFF6FE103000240024F400AC
:101180000000002000127A0004000020F8B5044698
:101190000D4604EB4400182101EBC00086B205EBBC
:1011A0004500282101EBC00087B20020009007F124
:1011B000170083B206F1170082B23946304605F0B7
:1011C000B5FCF8BDF8B506460F4606EB46001821FB
:1011D00001EBC00084B207EB4700282101EBC000FF
:1011E00085B20020009005F1170083B204F11700CA
:1011F00082B22946204605F099FC4FF4FC6005F1C7
:10120000160C1FFA8CF304F1160C1FFA8CF205F180
:10121000010C1FFA8CF104F1010C00901FFA8CF004
:1012200005F084FCF8BDF8B506460F4606EB46000F
:10123000182101EBC00084B207EB4700282101EB25
:10124000C00085B20020009005F1170083B204F1C0
:10125000170082B22946204605F068FC4FF478401A
:1012600005F1160C1FFA8CF304F1160C1FFA8CF220
:1012700005F1010C1FFA8CF104F1010C00901FFA2A
:101280008CF005F053FCFE4890F89201012806D03E
:1012900002282DD0032854D0042828D17AE0002039
:1012A00005F1080C1FFA8CF304F1080C1FFA8CF2FC
:1012B00005F1050C1FFA8CF104F1050C00901FFAE2
:1012C0008CF005F033FC002005F1080C1FFA8CF3BC
:1012D00004F1120C1FFA8CF205F1050C1FFA8CF1C7
:1012E00004F10F0C00901FFA8CF005F01FFC7AE05F
:1012F000002005F1120C1FFA8CF304F1080C1FFA00
:101300008CF205F10F0C1FFA8CF104F1050C009022
:101310001FFA8CF005F00AFC002005F1120C1FFAF0
:101320008CF304F1120C1FFA8CF205F10F0C1FFA6A
:101330008CF104F10F0C00901FFA8CF005F0F6FB15
:1013400051E0002005F1080C1FFA8CF304F1080CA1
:101350001FFA8CF205F1050C1FFA8CF104F1050C53
:1013600000901FFA8CF005F0E1FB002005F1120C53
:101370001FFA8CF304F1080C1FFA8CF205F10F0C24
:101380001FFA8CF104F1050C00901FFA8CF005F0A7
:10139000CDFB28E0002005F1080C1FFA8CF304F1C6
:1013A000120C1FFA8CF205F1050C1FFA8CF104F1F6
:1013B0000F0C00901FFA8CF005F0B8FB002005F12F
:1013C000120C1FFA8CF304F1120C1FFA8CF205F1C7
:1013D0000F0C1FFA8CF104F10F0C00901FFA8CF027
:1013E00005F0A4FB00BF00BFF8BDF8B506460F46E8
:1013F00006EB4600182101EBC00084B207EB470062
:10140000282101EBC00085B20020009005F11700F3
:1014100083B204F1170082B22946204605F086FB0C
:1014200040F2FF7005F1160C1FFA8CF304F1160C54
:101430001FFA8CF205F1010C1FFA8CF104F1010C7A
:1014400000901FFA8CF005F071FBF8BDF8B5064668
:101450000F4606EB4600182101EBC00084B207EBF3
:101460004700282101EBC00085B20020009005F163
:10147000170083B204F1170082B22946204605F016
:1014800055FB1F2005F1160C1FFA8CF304F1160C06
:101490001FFA8CF205F1010C1FFA8CF104F1010C1A
:1014A00000901FFA8CF005F041FB764890F892010D
:1014B000012806D002282FD0032858D004282AD18A
:1014C00080E04FF6FF7005F1080C1FFA8CF304F171
:1014D000080C1FFA8CF205F1050C1FFA8CF104F1CF
:1014E000050C00901FFA8CF005F020FB4FF6FF7002
:1014F00005F1080C1FFA8CF304F1120C1FFA8CF2A0
:1015000005F1050C1FFA8CF104F10F0C00901FFA85
:101510008CF005F00BFB80E04FF6FF7005F1120C2C
:101520001FFA8CF304F1080C1FFA8CF205F10F0C72
:101530001FFA8CF104F1050C00901FFA8CF005F0F5
:10154000F5FA4FF6FF7005F1120C1FFA8CF304F157
:10155000120C1FFA8CF205F10F0C1FFA8CF104F13A
:101560000F0C00901FFA8CF005F0E0FA55E04FF6F2
:10157000FF7005F1080C1FFA8CF304F1080C1FFA38
:101580008CF205F1050C1FFA8CF104F1050C0090AA
:101590001FFA8CF005F0CAFA4FF6FF7005F1120C35
:1015A0001FFA8CF304F1080C1FFA8CF205F10F0CF2
:1015B0001FFA8CF104F1050C00901FFA8CF005F075
:1015C000B5FA2AE04FF6FF7005F1120C1FFA8CF302
:1015D00004F1120C1FFA8CF205F1050C1FFA8CF1C4
:1015E00004F10F0C00901FFA8CF005F09FFA4FF6F3
:1015F000FF7005F1120C1FFA8CF304F1120C1FFAA4
:101600008CF205F10F0C1FFA8CF104F10F0C009015
:101610001FFA8CF005F08AFA00BF00BFF8BDF8B5DC
:1016200006460F4606EB4600182101EBC00084B2C7
:1016300007EB4700282101EBC00085B20020009095
:1016400005F1170083B204F1170082B22946204643
:1016500005F06CFA4FF4784005F1140C1FFA8CF386
:1016600004F1120C1FFA8CF205F1070C1FFA8CF131
:1016700004F1050C00901FFA8CF005F057FA03E016
:1016800044000020D80100200020F9490880EA1D0C
:1016900091B2621D90B201F078FAEA1D91B204F1A4
:1016A000120290B201F071FA05F1140291B2621DBA
:1016B00090B201F06AFA05F1140291B204F112023B
:1016C00090B201F062FA4FF6FF7005F1060C1FFAB6
:1016D0008CF304F10C0C1FFA8CF205F1030C1FFAC9
:1016E0008CF104F10B0C00901FFA8CF005F01EFA3F
:1016F0004FF4FC6005F1040C1FFA8CF304F1100C9C
:101700001FFA8CF205F1030C1FFA8CF104F10D0C99
:1017100000901FFA8CF005F009FAF8BD70B50125AC
:1017200055E00025FEF786FD122190FBF1F201FB4A
:10173000120000B2CF490880FEF77CFD1E2190FB0D
:10174000F1F201FB120000B2CA494880002415E002
:10175000C94830F92400C749B1F9001088420BD1BB
:10176000C54800EB8400B0F90200C249B1F902108B
:10177000884201D1012506E0601C84B2BE48B0F861
:101780009001A042E4DC00BFBC48007801281ED1D3
:10179000EDB9002415E0BA4830F92400B549B1F993
:1017A000001088420BD1B64800EB8400B0F902006B
:1017B000B049B1F90210884201D1012506E0601C50
:1017C00084B2AF48B0F89001A042E4DC00BF002D25
:1017D000A7D1A84AB2F90210B2F90000FFF71FFF23
:1017E00070BD012808D1A44991F89211022903D0B3
:1017F0000121A14A82F89211022808D19E4991F84C
:101800009211012903D002219B4A82F892110328E8
:1018100008D1994991F89211042903D00321964ADD
:1018200082F89211042808D1934991F89211032962
:1018300003D00421904A82F892117047012808D100
:101840008F4991F89211022903D001218C4A82F824
:101850009211022808D18A4991F89211012903D0E6
:101860000221874A82F89211032808D1844991F80D
:101870009211042903D00321814A82F8921104288D
:1018800008D17F4991F89211032903D004217C4AA1
:1018900082F89211704700B503467A480078012813
:1018A00027D176480078012823D1772B01D0572BF8
:1018B00004D10120FFF7C2FF012000BD732B01D02E
:1018C000532B04D10220FFF7B9FF0120F5E7612B6C
:1018D00001D0412B04D10320FFF7B0FF0120ECE73A
:1018E000642B01D0442B04D10420FFF7A7FF012073
:1018F000E3E70020E1E710B5002415E0002062498D
:10190000086001206149C1F8A002502005F0DEFC0A
:1019100001205D49086000205C49C1F8A002502008
:1019200005F0D4FC601CC4B2042CE7DB10BD38B554
:101930000120554908605549C1F8A80200205449C2
:10194000086040F2F72340F2C712282100901820C7
:1019500005F0ECF849480078002835D103204649C5
:10196000A1F89001042081F89201092008800F203D
:10197000488008460088401E00B28880084641889A
:10198000C1800088801E00B23B490881084641881A
:1019900041810246B2F90210B2F90000FFF743FCA0
:1019A00001240BE0344A02EB8402B2F90210324AFD
:1019B00032F92400FFF706FC601C84B22E48B0F810
:1019C0009001A042EEDC76E003202B49A1F89001C3
:1019D000022081F8920108804880888001212648F1
:1019E000C18002202449088100212348418103202D
:1019F0002349A1F89001012081F892010F2008806D
:101A00001B20488008460088888008464088401C83
:101A100001B21B48C18000881949088108464088E6
:101A2000801C01B216484181134AB2F90210B2F982
:101A30000000FFF7F8FB01240BE00F4A02EB8402E1
:101A4000B2F902100C4A32F92400FFF7BBFB601C0C
:101A500084B20948B0F89001A042EEDC084AB2F91D
:101A60000210B2F90000FFF7F1FC01241EE00000B3
:101A70002200002018000020440000201600002052
:101A8000D801002014000020A4824242008042427B
:101A90001C000020FA4A02EB8402B2F90210F84A54
:101AA00032F92400FFF7A1FC601C84B2F448B0F8BE
:101AB0009001A042EEDCFFF731FE38BD10B50124E5
:101AC0000BE0F04A02EB8402B2F90210ED4A32F95F
:101AD0002400FFF777FB601C84B2EA48B0F890015D
:101AE000A042EEDCE74AB2F90210B2F90000FFF7BB
:101AF0009AFBE5480078012819D101240BE0E04A5F
:101B000002EB8402B2F90210DD4A32F92400FFF739
:101B10006CFC601C84B2DA48B0F89001A042EEDCA4
:101B2000D74AB2F90210B2F90000FFF78FFCD74A8A
:101B3000B2F90210B2F90000FFF771FD10BD2DE9F6
:101B4000FF41D3480078012801D0BDE8FF81CE488D
:101B5000007800287ED10025CA48B0F89001401EC8
:101B6000C84901EB800000680390084600680290B5
:101B7000084690F89201012806D002280BD00328CD
:101B800010D004281CD114E0BDF80A00401E00B299
:101B9000ADF80A0014E0BDF80A00401C00B2ADF830
:101BA0000A000DE0BDF80800401E00B2ADF80800C4
:101BB00006E0BDF80800401C00B2ADF8080000BF08
:101BC00000BFBDF9080000280BDBBDF90800122892
:101BD00007DABDF90A00002803DBBDF90A001E2858
:101BE00008DB0320AA4908700020AA490870FFF703
:101BF00082FEAAE701241AE0BDF90800A14931F9E3
:101C00002410884211D1BDF90A009E4901EB8401DC
:101C1000B1F90210884208D103209D4908700020C4
:101C20009C490870FFF767FE8FE7601C84B29548F7
:101C3000B0F89001401EA042DEDCBDF908009349D7
:101C4000B1F9001088421BD1BDF90A008F49B1F9E2
:101C5000021000E055E0884212D1012500208E4993
:101C6000086001208D49C1F8A0021E2005F02EFB5E
:101C7000002089490839086001208849C1F8A80274
:101C800085B18048B0F89001642806DA7D48B0F844
:101C90009001401C7B49A1F89001814800680A30FE
:101CA0007F4908607748B0F89001401E84B20AE08E
:101CB000744800EB8401601E724A02EB80000068E9
:101CC0000860601E84B2002CF2DC6E48029901604C
:101CD00035B9BDF90E10BDF90C00FFF757FA01E058
:101CE000FFF71CFD674AB2F90610B2F90400FFF7CE
:101CF00069FA644AB2F90210B2F90000FFF793FAE8
:101D000005E2002500260027A8465E48B0F89001AD
:101D1000401E5C4901EB8000006803905848B0F811
:101D20009001401E564901EB800000680290554822
:101D300000680190084600680090524890F89201AF
:101D4000012806D002280BD0032810D004281CD16B
:101D500014E0BDF80600401E00B2ADF8060014E025
:101D6000BDF80600401C00B2ADF806000DE0BDF85D
:101D70000400401E00B2ADF8040006E0BDF8040007
:101D8000401C00B2ADF8040000BF00BF3C4890F812
:101D90009201012806D002280BD0032810D0042875
:101DA0001CD114E0BDF80200401E00B2ADF80200E4
:101DB00014E0BDF80200401C00B2ADF802000DE0D6
:101DC000BDF80000401E00B2ADF8000006E0BDF80E
:101DD0000000401C00B2ADF8000000BF00BFBDF91C
:101DE000040000280BDBBDF90400122807DABDF956
:101DF0000600002803DBBDF906001E2800DB0125D4
:101E0000BDF9000000280BDBBDF90000122807DA3D
:101E1000BDF90200002803DBBDF902001E2800DB2B
:101E20000126BDF90400BDF90010884207D1BDF9B3
:101E30000600BDF90210884201D101250126F5B93D
:101E4000012413E0BDF904000E4931F92410884241
:101E50000AD1BDF906000B4901EB8401B1F902106A
:101E6000884201D1012507E0601C84B20548B0F822
:101E70009001401EA042E5DC00BF002426E02BE0DC
:101E8000D801002044000020160000201800002087
:101E90001400002020000020A8824242008042421C
:101EA0001C000020BDF904009A4931F92410884231
:101EB0000AD1BDF90600974901EB8401B1F902107E
:101EC000884201D1012506E0601C84B29148B0F837
:101ED0009001A042E6DC00BF86BB012413E0BDF9FF
:101EE00000008C4931F9241088420AD1BDF9020062
:101EF000884901EB8401B1F90210884201D1012621
:101F000007E0601C84B28348B0F89001401EA042F4
:101F1000E5DC00BF002414E0BDF900007E4931F982
:101F2000241088420BD1BDF902007B4901EB8401EA
:101F3000B1F90210884202D1012607E007E0601CD7
:101F400084B27548B0F89001A042E5DC00BF05B945
:101F5000A6B103207149087025B11EB10020704957
:101F6000087008E025B11EB902206D49087002E032
:101F700001206B490870FFF7BEFCE6E5BDF90400DF
:101F80006849B1F90010884219D1BDF906006549C8
:101F9000B1F90210884212D101270020624908607D
:101FA00001206249C1F8A0021E2005F08FF900202F
:101FB0005D490839086001205C49C1F8A802BDF9F3
:101FC00000005849B1F9001088421BD1BDF9020048
:101FD0005449B1F90210884214D14FF00108002091
:101FE0005149091F086001205049C1F8A0021E2074
:101FF00005F06CF900204C490839086001204B4974
:10200000C1F8A40287B14448B0F89001642806DA08
:102010004148B0F89001401C3F49A1F89001444864
:1020200000680A3042490860B8F1000F10D0394802
:10203000B0F89001642806DA3648B0F89001401CE8
:102040003449A1F890013A4800680A3038490860DC
:102050003148B0F89001401E84B20AE02E4800EBEF
:102060008401601E2C4A02EB800000680860601E3C
:1020700084B2002CF2DC2848019901602548B0F8B0
:102080009001401E84B20AE0224800EB8401601EE9
:10209000204A02EB800000680860601E84B2002CB9
:1020A000F2DC1C48009901602FB9BDF90E10BDF992
:1020B0000C00FFF76BF8B8F1000F05D1BDF90A105D
:1020C000BDF90800FFF762F817B9B8F1000F01D0A9
:1020D000FFF724FB104AB2F90610B2F90400FFF72B
:1020E00071F80D4AB2F90210B2F90000FFF79BF83F
:1020F000084AB2F90610B2F90400FFF776F9054A6A
:10210000B2F90210B2F90000FFF7A0F900BF00BF5A
:102110001BE50000D801002044000020140000202E
:102120002000002018000020A88242420080424285
:102130001C0000201CB50121022006F02BF84FF4F2
:102140004070009001208DF8040000208DF80600FA
:1021500002208DF8050001208DF807006946A64889
:1021600005F096FA0120A5490860A549C1F8A40226
:102170001CBD10B5A048006820F440209E490860AE
:102180000846006840F48020086001209B49091D32
:1021900008609B49C1F8A002042005F04FF8002018
:1021A0009649091D0860042005F048F8002094496C
:1021B000C1F8A00210BD10B58F48006820F440207F
:1021C0008D4908600846006840F4802008600020BF
:1021D0008A4908608A49C1F8A402042005F02EF853
:1021E000012086490860042005F028F80120844970
:1021F000C1F8A402042005F021F810BD10B5002498
:102200007D48006820F440207B490860084600684B
:10221000086001207949091D0860022005F00EF8C8
:1022200001207749C1F8A002042005F007F807E073
:10223000601CC4B2FA2C03DDFFF7BDFF012010BD06
:102240006E487C3800680028F2D16C49086000BFF5
:10225000F5E770B504466848006820F440206649F8
:1022600008600846006840F4802008600020634948
:102270000860002517E0E0096049091D0860600654
:10228000040E042004F0DAFF01205D49C1F8A00229
:10229000042004F0D3FF002058490860042004F013
:1022A000CDFF681CC5B2082DE5DB70BD70B50546D5
:1022B00000245148006820F440204F490860084637
:1022C00000680860002619E000204C4908600420DE
:1022D00004F0B4FF01204A49C1F8A002042004F030
:1022E000ADFF6006040E45487C38006808B1601CEC
:1022F000C4B2022004F0A2FF701CC6B2082EE3DBB9
:1023000000203E4908603C48006820F440203A49DB
:1023100008600846006840F4802008600DB901207C
:1023200000E000203549091D0860042004F086FF04
:1023300001203349C1F8A002042004F07FFF0020EF
:102340002E490860204670BD70B504460025FFF791
:1023500010FFA020FFF77DFFFFF750FFE0B2FFF76F
:1023600078FFFFF74BFFFFF704FFA120FFF771FF96
:10237000FFF744FF0020FFF799FF0546FFF71BFF1B
:10238000284670BD70B504460D46FFF7F2FEA0204A
:10239000FFF75FFFFFF732FFE0B2FFF75AFFFFF7EB
:1023A0002DFF2846FFF755FFFFF728FFFFF703FF34
:1023B0000A2004F08BFF70BD70B50020FFF7C4FF4A
:1023C00005460120FFF7C0FF064646EA05244FF602
:1023D000FF70844201D1002070BD2046FCE770B53B
:1023E0000446250AE6B229460020FFF7CBFF314616
:1023F0000120FFF7C7FF70BD00040240A0824042E9
:10240000008040421CB50121202005F0C3FE4FF49E
:10241000C060009001208DF8040000208DF80600B7
:1024200003208DF8050001208DF807006946044857
:1024300005F02EF94FF4C061014805F0A5F91CBD67
:102440000014024001B5BDF800000090BDF8000086
:10245000F849088008BD01B5BDF800000090BDF83E
:102460000000F449891C088008BD08B5F148801CAB
:1024700000880090BDF8000008BDEE4A10804FF0C3
:10248000D842A2F88010704710B504462046FFF7E6
:10249000D9FF052004F0D2FEFFF7E7FF10BDE648A4
:1024A0000089E44908807047E249891C0880704728
:1024B00030B5014601F01F04C1F34513CA0AE50215
:1024C00005EB43151544A8B230BD00BF0100A0F1D3
:1024D0000102D0B2FAD1704730B504460D46D64855
:1024E000808849F24131884205D0D348808845F23E
:1024F0001031884214D1D0494889FFF7A3FF201238
:10250000FFF7A9FFE0B2FFF7A6FFCB498889FFF7E5
:1025100099FF2812FFF79FFFE8B2FFF79CFFABE09F
:10252000C548808846F6040188421DD1C24880799A
:10253000012804D1C0480088401E001B84B2BE4957
:102540004889FFF77FFF2012FFF785FFE0B2FFF712
:1025500082FFB9498889FFF775FF2812FFF77BFFD3
:10256000E8B2FFF778FF87E0B348808841F663114F
:10257000884247D1B0488079A8B9AF480088401E4A
:10258000001B84B2AC494889FFF75CFF0020FFF7CD
:1025900062FF0020FFF75FFF2012FFF75CFFE0B251
:1025A000FFF759FF16E0A4494889FFF74BFF2012B7
:1025B000FFF751FFE0B2FFF74EFF9F490988491E20
:1025C000C1F30F20FFF747FF9B490978491EC8B2A6
:1025D000FFF741FF98498889FFF734FF2812FFF77A
:1025E0003AFFE8B2FFF737FF93494988491EC1F324
:1025F0000F20FFF730FF90498978491EC8B2FFF7D6
:102600002AFF39E08C48808845F21051884220D159
:1026100089494889FFF716FF2012FFF71CFF8649FA
:102620004989491C88B2FFF70DFFE0B2FFF713FF9D
:1026300081498889FFF706FF2812FFF70CFF7E49C2
:102640008989491C88B2FFF7FDFEE8B2FFF703FF56
:1026500012E079488079012804D177480088401E2B
:10266000001B84B2744948892146FFF706FF72496E
:1026700088892946FFF701FF30BD2DE9F041054665
:102680000E4600240027A0466B480088A84203DDC0
:1026900069484088B04202DC0020BDE8F081314644
:1026A0002846FFF719FF6448808849F24131884283
:1026B00011D06148808846F6040188420BD05E48FC
:1026C000808845F21031884205D05B48808841F609
:1026D0006311884203D12E20FFF7B4FE0DE0564867
:1026E000808845F21051884204D14FF43850FFF7EA
:1026F000A9FE02E02220FFF7A5FE4F48808849F29C
:102700002031884202D10220FFF7DFFEFFF7ADFE45
:1027100004464948808841F66311884201D1204629
:10272000BBE70220FFF7D1FEFFF79FFE04464248B9
:10273000808849F2413188420BD03F48808845F279
:102740001031884205D03C48808845F210518842BB
:102750000AD10220FFF7B9FEFFF787FE8046E7B2F5
:102760004FF6FF7000EA07273348808849F2253189
:10277000884216D03048808844F23551884210D0C3
:102780002D488088091F88420BD02B4880884BF247
:102790000551884205D0284880884CF2055188426E
:1027A00001D1204679E72448808849F241318842A6
:1027B0000BD02148808845F21031884205D01E4850
:1027C000808845F21051884207D1E012C002B91248
:1027D00040EA411040EAE8205FE72046FFF768FE44
:1027E0005BE700B51448808849F24131884211D036
:1027F0001148808846F6040188420BD00E48808834
:1028000045F21031884205D00B48808841F66311AB
:10281000884203D12920FFF715FE14E0064880887E
:1028200045F21051884209D14FF42450FFF70AFEB7
:1028300009E000007E00006C6C03002040F2731180
:102840000720FFF71AFE00BD00B5FD48808849F259
:102850004131884211D0FA48808846F60401884206
:102860000BD0F748808845F21031884205D0F448F3
:10287000808841F66311884203D12820FFF7E2FDEA
:102880000EE0EF48808845F21051884204D14FF4A1
:102890002050FFF7D7FD03E000210720FFF7EDFDF3
:1028A00000BDF0B5054600240027E54880790128E1
:1028B0000BD1E348808846F60401884205D0E04801
:1028C000808841F66311884208D1DD488079F0B9EB
:1028D000DB48808841F66311884218D1082D15D253
:1028E000DFE805F00406080A0C0E101206250DE0BC
:1028F00007250BE0042509E0052507E0012505E093
:10290000002503E0032501E0022500BF00BFCC48FD
:10291000808849F24131884217D0C948808846F6FC
:102920000401884211D0C648808845F2103188429F
:102930000BD0C348808845F21051884205D0C0486A
:10294000808841F6631188427ED1082D1CD2DFE8D1
:1029500005F00406090C0F12151800BF14E044F02E
:10296000800411E044F040040EE044F0C0040BE0A9
:1029700044F0200408E044F0600405E044F0A004C2
:1029800002E044F0E00400BF00BFAD48808845F29B
:102990001051884202D14FF4585700E03627A8481A
:1029A000808845F2103188420DD0A548808845F2D4
:1029B0001051884207D0A248808841F663118842AE
:1029C00001D044F008049E48808846F604018842FD
:1029D00001D144F0020421463846FFF74EFD9848E5
:1029E000808841F6631188421DD004F0200068B150
:1029F0009348008892494988884214DA90480688AA
:102A000040888F490880084646800CE08C48008842
:102A10008B494988884206DD89480688408888496C
:102A20000880084646808648808845F210518842D2
:102A300054D183494889FFF705FD0020FFF70BFDBE
:102A40007F494989491C00E077E088B2FFF7FAFC2A
:102A50000020FFF700FD7A494989891C88B2FFF7F9
:102A6000F1FC77490988491EC1F30F20FFF7F3FCF9
:102A700073494989C91C88B2FFF7E4FC7049097899
:102A8000491EC8B2FFF7E7FC6D498889FFF7DAFCF9
:102A90000020FFF7E0FC6A498989491C88B2FFF7EA
:102AA000D1FC0020FFF7D7FC65498989891C88B2D1
:102AB000FFF7C8FC62494988491EC1F30F20FFF7A0
:102AC000CAFC5F498989C91C88B2FFF7BBFC5C4915
:102AD0008978491EC8B2FFF7BEFC55E058494889BD
:102AE000FFF7B0FC0020FFF7B6FC0020FFF7B3FCB7
:102AF00053490988491EC1F30F20FFF7ACFC504928
:102B00000978491EC8B2FFF7A6FC4D498889FFF72E
:102B100099FC0020FFF79FFC0020FFF79CFC484930
:102B20004988491EC1F30F20FFF795FC4449897875
:102B3000491EC8B2FFF78FFC26E0082D1CD2DFE843
:102B400005F004070A0D0F12151844F0300413E0C5
:102B500044F0100410E044F020040DE000BF0BE04E
:102B600044F0380408E044F0280405E044F0180478
:102B700002E044F0080400BF00BF032744F480547F
:102B800021463846FFF779FCF0BD30B504460D46C6
:102B900029462046FFF7A0FCFFF781FC2948008862
:102BA0002949088030BD70B504460D4616462448B4
:102BB000808849F24131884205D02148808845F219
:102BC0001031884214D11E494889FFF73BFC20127E
:102BD000FFF741FCE0B2FFF73EFC19498889FFF797
:102BE00031FC2812FFF737FCE8B2FFF734FC93E022
:102BF0001348808845F21051884227D110494889EE
:102C0000FFF720FC2012FFF726FC0D494989491CDB
:102C100088B2FFF717FCE0B2FFF71DFC084988896E
:102C2000FFF710FC2812FFF716FC05498989491C9B
:102C300088B2FFF707FCE8B2FFF70DFC6CE000007C
:102C40006C030020220000208000006CFE48808879
:102C500041F66311884228D1FB48807920B9FA48AF
:102C60000088401E001B84B2F7494889FFF7EAFB41
:102C70002012FFF7F0FBE0B2FFF7EDFB2012FFF7A9
:102C8000EAFBE0B2FFF7E7FBEF498889FFF7DAFBE1
:102C90002812FFF7E0FBE8B2FFF7DDFB2812FFF791
:102CA000DAFBE8B2FFF7D7FB36E0E748808846F664
:102CB000040188421DD1E4488079012804D1E2480A
:102CC0000088401E001B84B2DF494889FFF7BAFB29
:102CD0002012FFF7C0FBE0B2FFF7BDFBDA4988899D
:102CE000FFF7B0FB2812FFF7B6FBE8B2FFF7B3FB24
:102CF00012E0D5488079012804D1D3480088401ECD
:102D0000001B84B2D04948892146FFF7B6FBCE4963
:102D100088892946FFF7B1FBCB480089CB49088059
:102D20004FF0D840A0F8806070BD70B52DED048BD9
:102D30000446BE20FFF786FB0520FFF78CFB2046EC
:102D400005F01BFF41EC190B9FEDC10B53EC102B51
:102D500005F026FF41EC180B05F0E2FE85B228468F
:102D6000FFF779FB0120FFF776FBFF20FFF773FBEE
:102D70000020FFF770FB0020FFF76DFBBDEC048B1C
:102D800070BD10B50446002C66D1AF498871F020A3
:102D900008804FF4A07048800846808849F241318D
:102DA00088420BD0A848808846F60401884205D0A6
:102DB000A548808845F2103188421AD12C20A249BA
:102DC00008812A2048812B2088810846808846F681
:102DD0000401884205D09C48808845F21031884221
:102DE00006D14FF4A070984908804FF4F0704880E5
:102DF000A1E09548808845F21051884210D14FF4E7
:102E00003050914908814FF4285048814FF42C509C
:102E100088814FF4F07008804FF4487048808AE051
:102E20008948808841F6631188420DD12C2086495B
:102E300008812B2048812A2088814FF4F070088077
:102E40004FF44870488076E022207F490881202096
:102E50004881212088816EE001207B4988714FF4F0
:102E6000A0700880F02048800846808849F24131EF
:102E7000884205D07448808845F21031884207D1D5
:102E80002C20714908812A2048812B2088813FE02D
:102E90006D48808846F60401884207D12C206A4993
:102EA00008812B2048812A20888131E0664880886B
:102EB00045F21051884210D14FF4305062490881D8
:102EC0004FF4285048814FF42C5088814FF44870BB
:102ED00008804FF4F07048801AE05B48808841F623
:102EE000631188420DD12C20574908812A2048813E
:102EF0002B2088814FF4487008804FF4F070488090
:102F000006E0222050490881212048812020888124
:102F10004D48808846F60401884205D04A4880889A
:102F200045F21031884206D14FF4F07046490880CE
:102F30004FF4A07048800020FFF7B3FC10BD2DE9CE
:102F4000F04F86B004460D469046994604EB0800C3
:102F5000401E86B205EB0900401E87B23A488088C1
:102F600049F24131884215D03748808845F2103106
:102F700088420FD03448808846F60401884209D040
:102F800031488079012826D12F48808841F6631185
:102F9000884220D12C494889FFF754FA2012FFF7C4
:102FA0005AFAE0B2FFF757FA3012FFF754FAF0B2CC
:102FB000FFF751FA24498889FFF744FA2812FFF7EE
:102FC0004AFAE8B2FFF747FA3812FFF744FAF8B2C4
:102FD000FFF741FAC1E01C48808841F6631188423E
:102FE0003DD119480088A0EB0800001B84B205EB16
:102FF0000900401E1FFA80F913494889FFF722FA99
:103000002012FFF728FAE0B2FFF725FA04EB0801D7
:10301000491EC1F30F20FFF71EFA04EB0801491EF9
:10302000C8B2FFF718FA08498889FFF70BFA281287
:10303000FFF711FAE8B2FFF70EFA4FEA2920FFF77F
:103040000AFA09F0FF0007E06C0300207E00006C24
:103050006666666666660440FFF7FDF97DE0FE4839
:10306000808845F21051884244D1FB494889FFF7D6
:10307000E9F92012FFF7EFF9F7494989491C88B2AD
:10308000FFF7E0F9E0B2FFF7E6F9F3494989891C57
:1030900088B2FFF7D7F93012FFF7DDF9EE49498919
:1030A000C91C88B2FFF7CEF9F0B2FFF7D4F9EA49AC
:1030B0008889FFF7C7F92812FFF7CDF9E649898912
:1030C000491C88B2FFF7BEF9E8B2FFF7C4F9E2493C
:1030D0008989891C88B2FFF7B5F93812FFF7BBF967
:1030E000DD498989C91C88B2FFF7ACF9F8B2FFF74E
:1030F000B2F932E0D848807901280ED1AA46BB4601
:10310000D5480088801B401E80B20190D2480088BC
:10311000001B401E80B2009003E0A246B34601951A
:103120000097502005905120049052200390532086
:10313000029051460598FFF7A0F959460498FFF709
:103140009CF901990398FFF798F900990298FFF705
:1031500094F929462046FFF7BFF906B0BDE8F08F85
:1031600070B504460026BC48058840884543BA48E7
:10317000808846F60401884216D1B7488079012834
:1031800012D10020B44988712A2048812B208881DF
:1031900000210846FFF7A0F90120AF4988712B20D4
:1031A00048812A20888103E000210846FFF794F92E
:1031B000FFF775F9002602E0A8480480761CAE42AD
:1031C000FAD370BD00B5A1B00020209001217A2073
:1031D00004F0E0FF0121084605F014F84FF4004028
:1031E0001E9001208DF87C0000208DF87E000220CA
:1031F0008DF87D0001208DF87F001EA9984804F00D
:1032000047FA4CF233701E9002208DF87C000020AB
:103210008DF87E0003208DF87D0001208DF87F0061
:103220001EA9904804F034FA4FF680701E900220D8
:103230008DF87C0000208DF87E0003208DF87D0045
:1032400001208DF87F001EA9874804F021FA4FF471
:1032500080501E9002208DF87C0000208DF87E00AA
:1032600003208DF87D0001208DF87F001EA97F4886
:1032700004F00EFA4FF480501E9002208DF87C006E
:1032800000208DF87E0003208DF87D0001208DF850
:103290007F001EA9764804F0FBF90C22002171483A
:1032A00004F081FA0C2201216E4804F07CFA0C2211
:1032B00004216C4804F077FA0C220521694804F0D7
:1032C00072FA0C220821674804F06DFA0C220921D9
:1032D000644804F068FA0C220A21624804F063FA98
:1032E0000C220E215F4804F05EFA0C220F215D488B
:1032F00004F059FA0C2207215B4804F054FA0C221E
:103300000821594804F04FFA0C220921564804F0CC
:103310004AFA0C220A21544804F045FA0C220B21E7
:10332000514804F040FA0C2211464F4804F03BFA91
:103330000C220D214C4804F036FA0C220E214A488A
:1033400004F031FA0C220F21474804F02CFA0C2229
:103350001146464804F027FA0C221146444804F06E
:1033600022FA0F200890002009903C200A900020AB
:103370000B900C900D900E9009200190002002906F
:1033800008200390002004900590069007900620E6
:103390000F90002010901190102012900020139098
:1033A00015901490169017904FF4805018900020AC
:1033B00019904FF480401A9000201B9008A81C9090
:1033C00001A81D900FA804F042FA0121062004F084
:1033D000C9FA322003F07AFF01210020FFF74DF8EF
:1033E000322003F073FF0020FFF74EF81A4988805F
:1033F00008468088FF280ADB084680884FF6FF7160
:10340000884204D014488088B0F5134F7ED1D32071
:10341000FFF718F8FFF729F80F498880FFF725F81C
:103420000D498880FFF721F80B498880084680887D
:103430004FF6FF7101EA002007498880FFF715F871
:10344000054989880843044988800846808849F2EC
:10345000413188425AD00DE06C0300208000006C9E
:1034600000040240000C0240001002400014024020
:1034700000180240BF20FEF7E5FFFEF7F6FFFE4909
:103480008880FEF7F2FFFC498880FEF7EEFFFA49DC
:103490008880FEF7EAFFF8498880084680884FF662
:1034A000FF7101EA0020F4498880FEF7DEFFF2494F
:1034B00089880843F04988800846808846F60401D8
:1034C00088427AD0D420FEF7BDFFFEF7CEFFEA494E
:1034D0008880FEF7CAFFE8498880FEF7C6FFE64904
:1034E0008880084680884FF6FF7101EA0020E24993
:1034F0008880FEF7BAFFE04989880843DE49888062
:103500000846808845F21031884200E055E054D0EA
:103510004FF45A40FEF796FFFEF7A7FFD649888082
:103520004FF45B40FEF78EFFFEF79FFFD249888085
:10353000084680884FF6FF7101EA0020CE49888056
:103540004FF45C40FEF77EFFFEF78FFFCA49898883
:103550000843C949888008468088B0F5004F02D1E9
:1035600045F210508880C448808845F21051884246
:1035700023D0A120FEF766FFFEF777FFBE498880C3
:10358000FEF773FFBC498880084680884FF6FF71BC
:1035900001EA0020B8498880FEF767FFB6498988AC
:1035A0000843B54988800846808845F261718842A1
:1035B00003D141F66310B0498880AF48808849F252
:1035C0004131884211D0AC48808845F210318842A0
:1035D0000BD0A948808845F21051884205D0A648F2
:1035E000808841F6631188421DD1A448006820F00C
:1035F0000F004FF02041C1F81C010846D0F81C0113
:1036000020F47060C1F81C010846D0F81C0140F09D
:103610000300C1F81C010846D0F81C0140F40070FA
:10362000C1F81C0128E09448808846F604018842CD
:1036300005D0914880884CF2055188421CD18F48B2
:10364000006820F00F004FF02041C1F81C0108462F
:10365000D0F81C0120F47060C1F81C010846D0F8B5
:103660001C0140F00A00C1F81C010846D0F81C01FA
:1036700040F44060C1F81C017F48818880A005F0BB
:1036800009F97D48808849F2413188427ED1CF20B6
:10369000FEF7D8FE0020FEF7DEFEC120FEF7DBFEBF
:1036A0003020FEF7D8FEED20FEF7CCFE6420FEF7BA
:1036B000D2FE0320FEF7CFFE1220FEF7CCFE8120C3
:1036C000FEF7C9FEE820FEF7BDFE8520FEF7C3FE2B
:1036D0001020FEF7C0FE7A20FEF7BDFECB20FEF7DD
:1036E000B1FE3920FEF7B7FE2C20FEF7B4FE002015
:1036F000FEF7B1FE3420FEF7AEFE0220FEF7ABFE71
:10370000F720FEF79FFE2020FEF7A5FEEA20FEF739
:1037100099FE0020FEF79FFE0020FEF79CFEC020D1
:10372000FEF790FE1B20FEF796FEC120FEF78AFEF4
:103730000120FEF790FEC520FEF784FE3020FEF744
:103740008AFE3020FEF787FEC720FEF77BFEB720FB
:10375000FEF781FE3620FEF775FE4820FEF77BFE61
:103760003A20FEF76FFE5520FEF775FEB120FEF7FA
:1037700069FE0020FEF76FFE1A20FEF76CFEB620F1
:10378000FEF760FE0A20FEF766FE00E0A5E0A2203C
:10379000FEF761FEF220FEF755FE0020FEF75BFE0D
:1037A0002620FEF74FFE0120FEF755FEE020FEF733
:1037B00049FE0F20FEF74FFE2A20FEF74CFE282080
:1037C000FEF749FE0820FEF746FE0E20FEF743FEF8
:1037D0000820FEF740FE5420FEF73DFEA920FEF72C
:1037E0003AFE4320FEF737FE0A20FEF734FE0F2094
:1037F000FEF731FE0020FEF72EFE0020FEF72BFE26
:103800000020FEF728FE0020FEF725FEE120FEF74F
:1038100019FE0020FEF71FFE1520FEF71CFE1720E4
:10382000FEF719FE0720FEF716FE1120FEF713FE25
:103830000620FEF710FE2B20FEF70DFE5620FEF7A9
:103840000AFE3C20FEF707FE0520FEF704FE1020CE
:10385000FEF701FE0F20FEF7FEFD3F20FEF7FBFD09
:103860003F20FEF7F8FD0F20FEF7F5FD2B20FEF7B9
:10387000E9FD00200CE000006C0300201C0100A00A
:10388000204C43442049443A25780D0A00000000AA
:10389000FEF7E1FD0020FEF7DEFD0120FEF7DBFD77
:1038A0003F20FEF7D8FD2A20FEF7CCFD0020FEF7D2
:1038B000D2FD0020FEF7CFFD0020FEF7CCFDEF206B
:1038C000FEF7C9FD1120FEF7BDFD782003F0FEFCD8
:1038D0002920FEF7B7FD03F01DB9FE48808846F6A3
:1038E000040188427ED11120FEF7ACFD142003F0C4
:1038F000EDFCD020FEF7A6FD0720FEF7ACFD422030
:10390000FEF7A9FD1D20FEF7A6FDD120FEF79AFDCA
:103910000020FEF7A0FD1A20FEF79DFD0920FEF70E
:103920009AFDD220FEF78EFD0120FEF794FD2220A5
:10393000FEF791FDC020FEF785FD1020FEF78BFD00
:103940003B20FEF788FD0020FEF785FD0220FEF7F4
:1039500082FD1120FEF77FFDC520FEF773FD0320D9
:10396000FEF779FDC820FEF76DFD0020FEF773FD20
:103970002520FEF770FD2120FEF76DFD0520FEF7E6
:103980006AFD0020FEF767FD0A20FEF764FD652052
:10399000FEF761FD2520FEF75EFD7720FEF75BFD5B
:1039A0005020FEF758FD0F20FEF755FD0020FEF7D2
:1039B00052FDF820FEF746FD0120FEF74CFDFE20EB
:1039C000FEF740FD0020FEF746FD0220FEF743FD16
:1039D0002020FEF737FD3620FEF734FD0820FEF7E5
:1039E0003AFD00E02AE03A20FEF72CFD5520FEF7D4
:1039F00032FD2B20FEF726FD0020FEF72CFD0020D7
:103A0000FEF729FD0120FEF726FD3F20FEF723FDEE
:103A10002A20FEF717FD0020FEF71DFD0020FEF70F
:103A20001AFD0120FEF717FDDF20FEF714FD7820B8
:103A300003F04CFC2920FEF705FD4CE7A5488088E3
:103A400045F21031884240F07C87ED20FEF7FAFC09
:103A50000120FEF700FDFE20FEF7FDFCEE20FEF744
:103A6000F1FCDE20FEF7F7FC2120FEF7F4FCF1204C
:103A7000FEF7E8FC0120FEF7EEFCDF20FEF7E2FC9B
:103A80001020FEF7E8FCC420FEF7DCFC8F20FEF7D8
:103A9000E2FCC620FEF7D6FC0020FEF7DCFCE220AC
:103AA000FEF7D9FCE220FEF7D6FCE220FEF7D3FCBD
:103AB000BF20FEF7C7FCAA20FEF7CDFCB020FEF722
:103AC000C1FC0D20FEF7C7FC0020FEF7C4FC0D2052
:103AD000FEF7C1FC0020FEF7BEFC1120FEF7BBFC88
:103AE0000020FEF7B8FC1920FEF7B5FC0020FEF719
:103AF000B2FC2120FEF7AFFC0020FEF7ACFC2D202D
:103B0000FEF7A9FC0020FEF7A6FC3D20FEF7A3FC73
:103B10000020FEF7A0FC5D20FEF79DFC0020FEF7D4
:103B20009AFC5D20FEF797FC0020FEF794FCB12084
:103B3000FEF788FC8020FEF78EFC0020FEF78BFC51
:103B40008B20FEF788FC0020FEF785FC9620FEF710
:103B500082FC0020FEF77FFCB220FEF773FC002001
:103B6000FEF779FC0020FEF776FC0220FEF773FCDE
:103B70000020FEF770FC0320FEF76DFC0020FEF72E
:103B80006AFCB320FEF75EFC0020FEF764FC002018
:103B9000FEF761FC0020FEF75EFC0020FEF75BFCF8
:103BA0000020FEF758FC0020FEF755FC0020FEF731
:103BB00052FC0020FEF74FFC0020FEF74CFC0020DA
:103BC000FEF749FC0020FEF746FC0020FEF743FC10
:103BD0000020FEF740FC0020FEF73DFC0020FEF731
:103BE0003AFC0020FEF737FC0020FEF734FC0020F2
:103BF000FEF731FC0020FEF72EFC0020FEF72BFC28
:103C00000020FEF728FC0020FEF725FC0020FEF730
:103C100022FC0020FEF71FFCB420FEF713FC8B20D3
:103C2000FEF719FC0020FEF716FC9620FEF713FCA9
:103C30000020FEF710FCA120FEF70DFC0020FEF78F
:103C40000AFCB520FEF7FEFB0220FEF704FC002074
:103C5000FEF701FC0320FEF7FEFB0020FEF7FBFB56
:103C60000420FEF7F8FB0020FEF7F5FBB620FEF778
:103C7000E9FB0020FEF7EFFB0020FEF7ECFBB7208E
:103C8000FEF7E0FB0020FEF7E6FB0020FEF7E3FB7B
:103C90003F20FEF7E0FB0020FEF7DDFB5E20FEF795
:103CA000DAFB0020FEF7D7FB6420FEF7D4FB0020F0
:103CB000FEF7D1FB8C20FEF7CEFB0020FEF7CBFBFE
:103CC000AC20FEF7C8FB0020FEF7C5FBDC20FEF7AA
:103CD000C2FB01E06C0300200020FEF7BCFB70205B
:103CE000FEF7B9FB0020FEF7B6FB9020FEF7B3FB12
:103CF0000020FEF7B0FBEB20FEF7ADFB0020FEF747
:103D0000AAFBDC20FEF7A7FB0020FEF7A4FBB820EF
:103D1000FEF798FB0020FEF79EFB0020FEF79BFBC2
:103D20000020FEF798FB0020FEF795FB0020FEF731
:103D300092FB0020FEF78FFB0020FEF78CFB00209B
:103D4000FEF789FBBA20FEF77DFB2420FEF783FBFC
:103D50000020FEF780FB0020FEF77DFB0020FEF731
:103D60007AFBC120FEF76EFB2020FEF774FB0020DB
:103D7000FEF771FB5420FEF76EFB0020FEF76BFB95
:103D8000FF20FEF768FB0020FEF765FBC220FEF770
:103D900059FB0A20FEF75FFB0020FEF75CFB0420C6
:103DA000FEF759FB0020FEF756FBC320FEF74AFB47
:103DB0003C20FEF750FB0020FEF74DFB3A20FEF7BB
:103DC0004AFB0020FEF747FB3920FEF744FB0020AA
:103DD000FEF741FB3720FEF73EFB0020FEF73BFBE2
:103DE0003C20FEF738FB0020FEF735FB3620FEF7BF
:103DF00032FB0020FEF72FFB3220FEF72CFB0020C9
:103E0000FEF729FB2F20FEF726FB0020FEF723FB01
:103E10002C20FEF720FB0020FEF71DFB2920FEF7DB
:103E20001AFB0020FEF717FB2620FEF714FB0020EC
:103E3000FEF711FB2420FEF70EFB0020FEF70BFB24
:103E40002420FEF708FB0020FEF705FB2320FEF7E9
:103E500002FB0020FEF7FFFA3C20FEF7FCFA0020F0
:103E6000FEF7F9FA3620FEF7F6FA0020FEF7F3FA2D
:103E70003220FEF7F0FA0020FEF7EDFA2F20FEF7D1
:103E8000EAFA0020FEF7E7FA2C20FEF7E4FA002019
:103E9000FEF7E1FA2920FEF7DEFA0020FEF7DBFA52
:103EA0002620FEF7D8FA0020FEF7D5FA2420FEF7E8
:103EB000D2FA0020FEF7CFFA2420FEF7CCFA002039
:103EC000FEF7C9FA2320FEF7C6FA0020FEF7C3FA70
:103ED000C420FEF7B7FA6220FEF7BDFA0020FEF715
:103EE000BAFA0520FEF7B7FA0020FEF7B4FA8420EC
:103EF000FEF7B1FA0020FEF7AEFAF020FEF7ABFABB
:103F00000020FEF7A8FA1820FEF7A5FA0020FEF719
:103F1000A2FAA420FEF79FFA0020FEF79CFA1820D0
:103F2000FEF799FA0020FEF796FA5020FEF793FA72
:103F30000020FEF790FA0C20FEF78DFA0020FEF725
:103F40008AFA1720FEF787FA0020FEF784FA9520F8
:103F5000FEF781FA0020FEF77EFAF320FEF77BFAE7
:103F60000020FEF778FAE620FEF775FA0020FEF74B
:103F700072FAC520FEF766FA3220FEF76CFA0020CE
:103F8000FEF769FA4420FEF766FA0020FEF763FAAE
:103F90006520FEF760FA0020FEF75DFA7620FEF756
:103FA0005AFA0020FEF757FA8820FEF754FA00204C
:103FB000FEF751FAC620FEF745FA2020FEF74BFA2D
:103FC0000020FEF748FA1720FEF745FA0020FEF71A
:103FD00042FA0120FEF73FFA0020FEF73CFAC72024
:103FE000FEF730FA0020FEF736FA0020FEF733FA2B
:103FF0000020FEF730FA0020FEF72DFAC820FEF769
:1040000021FA0020FEF727FA0020FEF724FA00200C
:10401000FEF721FA0020FEF71EFAC920FEF712FA79
:104020000020FEF718FA0020FEF715FA0020FEF730
:1040300012FA0020FEF70FFA0020FEF70CFA00201B
:10404000FEF709FA0020FEF706FA0020FEF703FA51
:104050000020FEF700FA0020FEF7FDF90020FEF731
:10406000FAF90020FEF7F7F90020FEF7F4F9002036
:10407000FEF7F1F90020FEF7EEF90020FEF7EBF96C
:10408000E020FEF7DFF91620FEF7E5F90020FEF745
:10409000E2F91C20FEF7DFF90020FEF7DCF9212011
:1040A000FEF7D9F90020FEF7D6F93620FEF7D3F94E
:1040B0000020FEF7D0F94620FEF7CDF90020FEF7EC
:1040C000CAF95220FEF7C7F90020FEF7C4F96420B0
:1040D000FEF7C1F90020FEF7BEF97A20FEF7BBF922
:1040E0000020FEF7B8F98B20FEF7B5F90020FEF7A7
:1040F000B2F99920FEF7AFF90020FEF7ACF9A8203D
:10410000FEF7A9F90020FEF7A6F9B920FEF7A3F9FA
:104110000020FEF7A0F9C420FEF79DF90020FEF76D
:104120009AF9CA20FEF797F90020FEF794F9D220F9
:10413000FEF791F90020FEF78EF9D920FEF78BF9F2
:104140000020FEF788F9E020FEF785F90020FEF751
:1041500082F9F320FEF77FF90020FEF77CF9E120D9
:10416000FEF770F91620FEF776F90020FEF773F9D6
:104170001C20FEF770F90020FEF76DF92220FEF7F3
:104180006AF90020FEF767F93620FEF764F900208F
:10419000FEF761F94520FEF75EF90020FEF75BF9B6
:1041A0005220FEF758F90020FEF755F96420FEF77B
:1041B00052F90020FEF74FF97A20FEF74CF9002063
:1041C000FEF749F98B20FEF746F90020FEF743F988
:1041D0009920FEF740F90020FEF73DF9A820FEF7F0
:1041E0003AF90020FEF737F9B920FEF734F900203C
:1041F000FEF731F9C420FEF72EF90020FEF72BF967
:10420000CA20FEF728F90020FEF725F9D220FEF794
:1042100022F90020FEF71FF9D820FEF71CF9002034
:10422000FEF719F9E020FEF716F90020FEF713F962
:10423000F320FEF710F90020FEF70DF9E220FEF75B
:1042400001F90520FEF707F90020FEF704F90B201D
:10425000FEF701F90020FEF7FEF81B20FEF7FBF841
:104260000020FEF7F8F83420FEF7F5F80020FEF7FE
:10427000F2F84420FEF7EFF80020FEF7ECF84F20AC
:10428000FEF7E9F80020FEF7E6F86120FEF7E3F814
:104290000020FEF7E0F87920FEF7DDF80020FEF7B9
:1042A000DAF88820FEF7D7F80020FEF7D4F8972038
:1042B000FEF7D1F80020FEF7CEF8A620FEF7CBF8E7
:1042C0000020FEF7C8F8B720FEF7C5F80020FEF77B
:1042D000C2F8C220FEF7BFF80020FEF7BCF8C720E6
:1042E000FEF7B9F80020FEF7B6F8D120FEF7B3F8D4
:1042F0000020FEF7B0F8D620FEF7ADF80020FEF75C
:10430000AAF8DD20FEF7A7F80020FEF7A4F8F320B6
:10431000FEF7A1F80020FEF79EF8E320FEF792F8E2
:104320000520FEF798F80020FEF795F80A20FEF722
:1043300092F80020FEF78FF81C20FEF78CF8002082
:10434000FEF789F83320FEF786F80020FEF783F8A1
:104350004420FEF780F80020FEF77DF85020FEF79D
:104360007AF80020FEF777F86220FEF774F8002054
:10437000FEF771F87820FEF76EF80020FEF76BF874
:104380008820FEF768F80020FEF765F89720FEF712
:1043900062F80020FEF75FF8A620FEF75CF8002028
:1043A000FEF759F8B720FEF756F80020FEF753F84D
:1043B000C220FEF750F80020FEF74DF8C720FEF7A8
:1043C0004AF80020FEF747F8D120FEF744F8002015
:1043D000FEF741F8D520FEF73EF80020FEF73BF847
:1043E000DD20FEF738F80020FEF735F8F320FEF761
:1043F00032F80020FEF72FF8E420FEF723F8012022
:10440000FEF729F80020FEF726F80120FEF723F832
:104410000020FEF720F80220FEF71DF80020FEF72E
:104420001AF82A20FEF717F80020FEF714F83C20AF
:10443000FEF711F80020FEF70EF84B20FEF70BF800
:104440000020FEF708F85D20FEF705F80020FEF7D3
:1044500002F87420FDF7FFFF0020FDF7FCFF842029
:10446000FDF7F9FF0020FDF7F6FF9320FDF7F3FFBE
:104470000020FDF7F0FFA220FDF7EDFF0020FDF783
:10448000EAFFB320FDF7E7FF0020FDF7E4FFBE20C1
:10449000FDF7E1FF0020FDF7DEFFC420FDF7DBFFA5
:1044A0000020FDF7D8FFCD20FDF7D5FF0020FDF758
:1044B000D2FFD320FDF7CFFF0020FDF7CCFFDD209A
:1044C000FDF7C9FF0020FDF7C6FFF320FDF7C3FF8E
:1044D0000020FDF7C0FFE520FDF7B4FF0020FDF749
:1044E000BAFF0020FDF7B7FF0020FDF7B4FF002062
:1044F000FDF7B1FF0220FDF7AEFF0020FDF7ABFF97
:104500002920FDF7A8FF0020FDF7A5FF3C20FDF7BF
:10451000A2FF0020FDF79FFF4B20FDF79CFF00202E
:10452000FDF799FF5D20FDF796FF0020FDF793FF53
:104530007420FDF790FF0020FDF78DFF8420FDF72C
:104540008AFF0020FDF787FF9320FDF784FF0020FE
:10455000FDF781FFA220FDF77EFF0020FDF77BFF26
:10456000B320FDF778FF0020FDF775FFBE20FDF7B3
:1045700072FF0020FDF76FFFC420FDF76CFF0020E5
:10458000FDF769FFCD20FDF766FF0020FDF763FF13
:10459000D320FDF760FF0020FDF75DFFDC20FDF775
:1045A0005AFF0020FDF757FFF320FDF754FF0020CE
:1045B000FDF751FFE620FDF745FF1120FDF74BFF0A
:1045C0000020FDF748FF3420FDF745FF0020FDF7F0
:1045D00042FF5620FDF73FFF0020FDF73CFF76200D
:1045E000FDF739FF0020FDF736FF7720FDF733FF99
:1045F0000020FDF730FF6620FDF72DFF0020FDF7BE
:104600002AFF8820FDF727FF0020FDF724FF9920CF
:10461000FDF721FF0020FDF71EFFBB20FDF71BFF6C
:104620000020FDF718FF9920FDF715FF0020FDF78A
:1046300012FF6620FDF70FFF0020FDF70CFF55204D
:10464000FDF709FF0020FDF706FF5520FDF703FFEA
:104650000020FDF700FF4520FDF7FDFE0020FDF7DF
:10466000FAFE4320FDF7F7FE0020FDF7F4FE44209C
:10467000FDF7F1FE0020FDF7EEFEE720FDF7E2FE7C
:104680003220FDF7E8FE0020FDF7E5FE5520FDF79E
:10469000E2FE0020FDF7DFFE7620FDF7DCFE0020C5
:1046A000FDF7D9FE6620FDF7D6FE0020FDF7D3FE0C
:1046B0006720FDF7D0FE0020FDF7CDFE6720FDF757
:1046C000CAFE0020FDF7C7FE8720FDF7C4FE0020CC
:1046D000FDF7C1FE9920FDF7BEFE0020FDF7BBFEF1
:1046E000BB20FDF7B8FE0020FDF7B5FE9920FDF7D1
:1046F000B2FE0020FDF7AFFE7720FDF7ACFE0020F4
:10470000FDF7A9FE4420FDF7A6FE0020FDF7A3FE5D
:104710005620FDF7A0FE0020FDF79DFE2320FDF7AB
:104720009AFE0020FDF797FE3320FDF794FE00204F
:10473000FDF791FE4520FDF78EFE0020FDF78BFE74
:10474000E820FDF77FFE0020FDF785FE0020FDF745
:1047500082FE9920FDF77FFE0020FDF77CFE87207A
:10476000FDF779FE0020FDF776FE8820FDF773FE49
:104770000020FDF770FE7720FDF76DFE0020FDF7AD
:104780006AFE6620FDF767FE0020FDF764FE8820C4
:10479000FDF761FE0020FDF75EFEAA20FDF75BFE3F
:1047A0000020FDF758FEBB20FDF755FE0020FDF769
:1047B00052FE9920FDF74FFE0020FDF74CFE6620CB
:1047C000FDF749FE0020FDF746FE5520FDF743FEAC
:1047D0000020FDF740FE5520FDF73DFE0020FDF7CF
:1047E0003AFE4420FDF737FE0020FDF734FE44205A
:1047F000FDF731FE0020FDF72EFE5520FDF72BFEC4
:104800000020FDF728FEE920FDF71CFEAA20FDF799
:1048100022FE0020FDF71FFE0020FDF71CFE0020F9
:10482000FDF719FE0020FDF70DFEAA20FDF713FE8F
:10483000CF20FDF707FE0020FDF70DFE0020FDF75D
:104840000AFE0020FDF707FE0020FDF704FE002011
:10485000FDF701FE0020FDF7FEFD0020FDF7FBFD4A
:104860000020FDF7F8FD0020FDF7F5FD0020FDF725
:10487000F2FD0020FDF7EFFD0020FDF7ECFD00202C
:10488000FDF7E9FD0020FDF7E6FD0020FDF7E3FD63
:104890000020FDF7E0FD0020FDF7DDFDF020FDF735
:1048A000D1FD0020FDF7D7FD5020FDF7D4FD0020FD
:1048B000FDF7D1FD0020FDF7CEFD0020FDF7CBFD7B
:1048C000F320FDF7BFFD0020FDF7C5FDF920FDF742
:1048D000B9FD0620FDF7BFFD1020FDF7BCFD292026
:1048E000FDF7B9FD0020FDF7B6FD3A20FDF7AAFD62
:1048F0005520FDF7B0FD1120FDF7A4FD642002F066
:10490000E5FC2920FDF79EFD3520FDF79BFD0020ED
:10491000FDF7A1FD5120FDF795FDFF20FDF79BFD63
:104920005320FDF78FFD2C20FDF795FD5520FDF759
:1049300089FD8220FDF78FFD2C20FDF783FD02F01D
:10494000E9B8FE48808845F2105188427ED1552151
:104950004FF47040FDF791FDAA214FF20100FDF7E1
:104960008CFD52214FF20200FDF787FD08214FF226
:104970000300FDF782FD01214FF20400FDF77DFDEC
:104980000D214FF43040FDF778FD0D214BF2010071
:10499000FDF773FD0D214BF20200FDF76EFD342192
:1049A0004FF43640FDF769FD34214BF20160FDF70D
:1049B00064FD34214BF20260FDF75FFD0D214FF4E1
:1049C0003140FDF75AFD0D214BF20110FDF755FD69
:1049D0000D214BF20210FDF750FD34214FF437400A
:1049E000FDF74BFD34214BF20170FDF746FD3421FC
:1049F0004BF20270FDF741FD00214FF43240FDF70C
:104A00003CFD00214BF20120FDF737FD00214BF268
:104A10000220FDF732FD24214FF43840FDF72DFD33
:104A200024214BF60100FDF728FD24214BF602005E
:104A3000FDF723FD01214FF43F40FDF71EFD0F213F
:104A40004FF43340FDF719FD0F2100E0FEE34BF278
:104A50000130FDF712FD0F214BF20230FDF70DFD85
:104A600034214FF43940FDF708FD34214BF6011095
:104A7000FDF703FD34214BF60210FDF7FEFC082183
:104A80004FF43540FDF7F9FC08214BF20150FDF7DA
:104A9000F4FC08214BF20250FDF7EFFC03214FF428
:104AA0004240FDF7EAFC24214FF43A40FDF7E5FCD3
:104AB00024214BF60120FDF7E0FC24214BF60220D7
:104AC000FDF7DBFC00214FF43C40FDF7D6FC7821DC
:104AD0004BF60140FDF7D1FC00214BF60240FDF7FB
:104AE000CCFC00214FF43D40FDF7C7FC78214BF68C
:104AF0000150FDF7C2FC00214BF60250FDF7BDFC52
:104B000000214FF43E40FDF7B8FC64214BF60160F4
:104B1000FDF7B3FC00214FF45140FDF7AEFC33210B
:104B20004DF20110FDF7A9FC00214DF20210FDF736
:104B3000A4FC34214DF20310FDF79FFC00214DF23F
:104B40000410FDF79AFC3A214DF20510FDF795FC93
:104B500000214DF20610FDF790FC4A214DF207109E
:104B6000FDF78BFC00214DF20810FDF786FC5C215F
:104B70004DF20910FDF781FC00214DF20A10FDF7FE
:104B80007CFC81214DF20B10FDF777FC00214DF2EA
:104B90000C10FDF772FCA6214DF20D10FDF76DFC17
:104BA00000214DF20E10FDF768FCE5214DF20F10CB
:104BB000FDF763FC01214DF21010FDF75EFC13219F
:104BC0004DF21110FDF759FC01214DF21210FDF7C5
:104BD00054FC54214DF21310FDF74FFC01214DF20E
:104BE0001410FDF74AFC82214DF21510FDF745FC2B
:104BF00001214DF21610FDF740FCCA214DF21710AD
:104C0000FDF73BFC02214DF21810FDF736FC0021A8
:104C10004DF21910FDF731FC02214DF21A10FDF78B
:104C20002CFC01214DF21B10FDF727FC02214DF257
:104C30001C10FDF722FC34214DF21D10FDF71DFC68
:104C400002214DF21E10FDF718FC67214DF21F10D6
:104C5000FDF713FC02214DF22010FDF70EFC84211C
:104C60004DF22110FDF709FC02214DF22210FDF753
:104C700004FCA4214DF22310FDF7FFFB02214DF2AD
:104C80002410FDF7FAFBB7214DF22510FDF7F5FBD7
:104C900002214DF22610FDF7F0FBCF214DF2271037
:104CA000FDF7EBFB02214DF22810FDF7E6FBDE21BC
:104CB0004DF22910FDF7E1FB02214DF22A10FDF71C
:104CC000DCFBF2214DF22B10FDF7D7FB02214DF258
:104CD0002C10FDF7D2FBFE214DF22D10FDF7CDFB80
:104CE00003214DF22E10FDF7C8FB10214DF22F10BD
:104CF000FDF7C3FB03214DF23010FDF7BEFB33215E
:104D00004DF23110FDF7B9FB03214DF23210FDF7E2
:104D1000B4FB6D214DF23310FDF7AFFB00214FF4D2
:104D20005240FDF7AAFB33214DF20120FDF7A5FB10
:104D300000214DF20220FDF7A0FB01E06C030020F2
:104D400034214DF20320FDF798FB00214DF20420A1
:104D5000FDF793FB3A214DF20520FDF78EFB002174
:104D60004DF20620FDF789FB4A214DF20720FDF7A1
:104D700084FB00214DF20820FDF77FFB5C214DF202
:104D80000920FDF77AFB00214DF20A20FDF775FBA3
:104D900081214DF20B20FDF770FB00214DF20C201C
:104DA000FDF76BFBA6214DF20D20FDF766FB002100
:104DB0004DF20E20FDF761FBE5214DF20F20FDF7CE
:104DC0005CFB01214DF21020FDF757FB13214DF242
:104DD0001120FDF752FB01214DF21220FDF74DFB92
:104DE00054214DF21320FDF748FB01214DF2142010
:104DF000FDF743FB82214DF21520FDF73EFB01211B
:104E00004DF21620FDF739FBCA214DF21720FDF7B0
:104E100034FB02214DF21820FDF72FFB00214DF24B
:104E20001920FDF72AFB02214DF21A20FDF725FB80
:104E300001214DF21B20FDF720FB02214DF21C2029
:104E4000FDF71BFB34214DF21D20FDF716FB02215F
:104E50004DF21E20FDF711FB67214DF21F20FDF7DB
:104E60000CFB02214DF22020FDF707FB84214DF2BF
:104E70002120FDF702FB02214DF22220FDF7FDFA71
:104E8000A4214DF22320FDF7F8FA02214DF224204F
:104E9000FDF7F3FAB7214DF22520FDF7EEFA0221D6
:104EA0004DF22620FDF7E9FACF214DF22720FDF73C
:104EB000E4FA02214DF22820FDF7DFFADE214DF25F
:104EC0002920FDF7DAFA02214DF22A20FDF7D5FA62
:104ED000F2214DF22B20FDF7D0FA02214DF22C20C9
:104EE000FDF7CBFAFE214DF22D20FDF7C6FA032186
:104EF0004DF22E20FDF7C1FA10214DF22F20FDF7C3
:104F0000BCFA03214DF23020FDF7B7FA33214DF200
:104F10003120FDF7B2FA03214DF23220FDF7ADFA50
:104F20006D214DF23320FDF7A8FA00214FF45340D4
:104F3000FDF7A3FA33214DF20130FDF79EFA00216F
:104F40004DF20230FDF799FA34214DF20330FDF7AE
:104F500094FA00214DF20430FDF78FFA3A214DF218
:104F60000530FDF78AFA00214DF20630FDF785FA8B
:104F70004A214DF20730FDF780FA00214DF208304A
:104F8000FDF77BFA5C214DF20930FDF776FA00213E
:104F90004DF20A30FDF771FA81214DF20B30FDF729
:104FA0006CFA00214DF20C30FDF767FAA6214DF2A4
:104FB0000D30FDF762FA00214DF20E30FDF75DFA7B
:104FC000E5214DF20F30FDF758FA01214DF2103076
:104FD000FDF753FA13214DF21130FDF74EFA01217E
:104FE0004DF21230FDF749FA54214DF21330FDF71E
:104FF00044FA01214DF21430FDF73FFA82214DF2BF
:105000001530FDF73AFA01214DF21630FDF735FA69
:10501000CA214DF21730FDF730FA02214DF2183057
:10502000FDF72BFA00214DF21930FDF726FA022187
:105030004DF21A30FDF721FA01214DF21B30FDF738
:105040001CFA02214DF21C30FDF717FA34214DF203
:105050001D30FDF712FA02214DF21E30FDF70DFA58
:1050600067214DF21F30FDF708FA02214DF2203082
:10507000FDF703FA84214DF22130FDF7FEF90221FC
:105080004DF22230FDF7F9F9A4214DF22330FDF75E
:10509000F4F902214DF22430FDF7EFF9B7214DF27A
:1050A0002530FDF7EAF902214DF22630FDF7E5F94A
:1050B000CF214DF22730FDF7E0F902214DF22830E3
:1050C000FDF7DBF9DE214DF22930FDF7D6F902219B
:1050D0004DF22A30FDF7D1F9F2214DF22B30FDF7D8
:1050E000CCF902214DF22C30FDF7C7F9FE214DF22B
:1050F0002D30FDF7C2F903214DF22E30FDF7BDF939
:1051000010214DF22F30FDF7B8F903214DF2303068
:10511000FDF7B3F933214DF23130FDF7AEF903213C
:105120004DF23230FDF7A9F96D214DF23330FDF724
:10513000A4F900214FF45440FDF79FF933214DF2BB
:105140000140FDF79AF900214DF20240FDF795F973
:1051500034214DF20340FDF790F900214DF2044057
:10516000FDF78BF93A214DF20540FDF786F9002154
:105170004DF20640FDF781F94A214DF20740FDF757
:105180007CF900214DF20840FDF777F95C214DF2E2
:105190000940FDF772F900214DF20A40FDF76DF963
:1051A00081214DF20B40FDF768F900214DF20C40D2
:1051B000FDF763F9A6214DF20D40FDF75EF90021E0
:1051C0004DF20E40FDF759F9E5214DF20F40FDF784
:1051D00054F901214DF21040FDF74FF913214DF222
:1051E0001140FDF74AF901214DF21240FDF745F952
:1051F00054214DF21340FDF740F901214DF21440C6
:10520000FDF73BF982214DF21540FDF736F90121FA
:105210004DF21640FDF731F9CA214DF21740FDF766
:105220002CF902214DF21840FDF727F900214DF22B
:105230001940FDF722F902214DF21A40FDF71DF940
:1052400001214DF21B40FDF718F900E004E30221B3
:105250004DF21C40FDF711F934214DF21D40FDF7D0
:105260000CF902214DF21E40FDF707F967214DF2BE
:105270001F40FDF702F902214DF22040FDF7FDF835
:1052800084214DF22140FDF7F8F802214DF2224031
:10529000FDF7F3F8A4214DF22340FDF7EEF80221CB
:1052A0004DF22440FDF7E9F8B7214DF22540FDF716
:1052B000E4F802214DF22640FDF7DFF8CF214DF250
:1052C0002740FDF7DAF802214DF22840FDF7D5F826
:1052D000DE214DF22940FDF7D0F802214DF22A409F
:1052E000FDF7CBF8F2214DF22B40FDF7C6F8022175
:1052F0004DF22C40FDF7C1F8FE214DF22D40FDF797
:10530000BCF803214DF22E40FDF7B7F810214DF205
:105310002F40FDF7B2F803214DF23040FDF7ADF814
:1053200033214DF23140FDF7A8F803214DF2324010
:10533000FDF7A3F86D214DF23340FDF79EF80021F3
:105340004FF45540FDF799F833214DF20150FDF728
:1053500094F800214DF20250FDF78FF834214DF200
:105360000350FDF78AF800214DF20450FDF785F84F
:105370003A214DF20550FDF780F800214DF206501C
:10538000FDF77BF84A214DF20750FDF776F8002132
:105390004DF20850FDF771F85C214DF20950FDF710
:1053A0006CF800214DF20A50FDF767F881214DF2AB
:1053B0000B50FDF762F800214DF20C50FDF75DF83F
:1053C000A6214DF20D50FDF758F800214DF20E5078
:1053D000FDF753F8E5214DF20F50FDF74EF801218E
:1053E0004DF21050FDF749F813214DF21150FDF721
:1053F00044F801214DF21250FDF73FF854214DF2CF
:105400001350FDF73AF801214DF21450FDF735F82D
:1054100082214DF21550FDF730F801214DF2165062
:10542000FDF72BF8CA214DF21750FDF726F802219F
:105430004DF21850FDF721F800214DF21950FDF7FB
:105440001CF802214DF21A50FDF717F801214DF218
:105450001B50FDF712F802214DF21C50FDF70DF81C
:1054600034214DF21D50FDF708F802214DF21E5077
:10547000FDF703F867214DF21F50FCF7FEFF0221F4
:105480004DF22050FCF7F9FF84214DF22150FCF73A
:10549000F4FF02214DF22250FCF7EFFFA4214DF260
:1054A0002350FCF7EAFF02214DF22450FCF7E5FF00
:1054B000B7214DF22550FCF7E0FF02214DF22650B6
:1054C000FCF7DBFFCF214DF22750FCF7D6FF02217E
:1054D0004DF22850FCF7D1FFDE214DF22950FCF7A8
:1054E000CCFF02214DF22A50FCF7C7FFF2214DF20A
:1054F0002B50FCF7C2FF02214DF22C50FCF7BDFFF0
:10550000FE214DF22D50FCF7B8FF03214DF22E5035
:10551000FCF7B3FF10214DF22F50FCF7AEFF032133
:105520004DF23050FCF7A9FF33214DF23150FCF71A
:10553000A4FF03214DF23250FCF79FFF6D214DF285
:105540003350FCF79AFF00214FF45640FCF795FFCB
:1055500033214DF20160FCF790FF00214DF2026013
:10556000FCF78BFF34214DF20360FCF786FF00212E
:105570004DF20460FCF781FF3A214DF20560FCF723
:105580007CFF00214DF20660FCF777FF4A214DF2C7
:105590000760FCF772FF00214DF20860FCF76DFF19
:1055A0005C214DF20960FCF768FF00214DF20A60B2
:1055B000FCF763FF81214DF20B60FCF75EFF0021D9
:1055C0004DF20C60FCF759FFA6214DF20D60FCF77F
:1055D00054FF00214DF20E60FCF74FFFE5214DF224
:1055E0000F60FCF74AFF01214DF21060FCF745FF08
:1055F00013214DF21160FCF740FF01214DF21260C2
:10560000FCF73BFF54214DF21360FCF736FF0121FC
:105610004DF21460FCF731FF82214DF21560FCF76A
:105620002CFF01214DF21660FCF727FFCA214DF235
:105630001760FCF722FF02214DF21860FCF71DFFF6
:1056400000214DF21960FCF718FF02214DF21A609B
:10565000FCF713FF01214DF21B60FCF70EFF022146
:105660004DF21C60FCF709FF34214DF21D60FCF780
:1056700004FF02214DF21E60FCF7FFFE67214DF290
:105680001F60FCF7FAFE02214DF22060FCF7F5FEE8
:1056900084214DF22160FCF7F0FE02214DF22260E0
:1056A000FCF7EBFEA4214DF22360FCF7E6FE02219D
:1056B0004DF22460FCF7E1FEB7214DF22560FCF7C6
:1056C000DCFE02214DF22660FCF7D7FECF214DF221
:1056D0002760FCF7D2FE02214DF22860FCF7CDFED8
:1056E000DE214DF22960FCF7C8FE02214DF22A604E
:1056F000FCF7C3FEF2214DF22B60FCF7BEFE022147
:105700004DF22C60FCF7B9FEFE214DF22D60FCF746
:10571000B4FE03214DF22E60FCF7AFFE10214DF2D6
:105720002F60FCF7AAFE03214DF23060FCF7A5FEC6
:1057300033214DF23160FCF7A0FE03214DF23260BF
:10574000FCF79BFE6D214DF23360FCF796FE552170
:105750004FF47040FCF791FEAA214FF20100FCF7D4
:105760008CFE52214FF20200FCF787FE08214FF217
:105770000300FCF782FE00214FF20400FCF77DFEDF
:10578000CC214FF43140FCF778FE00214BF20110A0
:10579000FCF773FE05214FF43640FCF76EFE7021D6
:1057A0004FF43740FCF769FE70214BF20170FCF7B3
:1057B00064FE01214FF43840FCF75FFE03214BF6F5
:1057C0000100FCF75AFE03214BF60200FCF755FEE0
:1057D00003214BF60300FCF750FE02214FF43C403E
:1057E000FCF74BFE00214BF60140FCF746FE002182
:1057F0004BF60240FCF741FED0214FF44940FCF744
:105800003CFE02214CF60110FCF737FE50214CF60D
:105810000210FCF732FE50214CF60310FCF72DFE6F
:1058200050214CF60410FCF728FE00214FF4545090
:10583000FCF723FE55214FF46850FCF71EFE4FF491
:105840008850FCF7FFFD782001F0F8FC4FF424505D
:10585000FCF7F8FD01F05EB9FE48808849F2253179
:1058600088427DD147F6F001E520FCF706FE4FF4B3
:1058700080710120FCF701FE4FF4E0610220FCF78B
:10588000FCFD41F230010320FCF7F7FD002104206C
:10589000FCF7F3FD40F202210820FCF7EEFD0021A9
:1058A0000920FCF7EAFD00210A20FCF7E6FD0021B3
:1058B0000C20FCF7E2FD00210D20FCF7DEFD0021AD
:1058C0000F20FCF7DAFD00211020FCF7D6FD0721A0
:1058D0001120FCF7D2FD00211220FCF7CEFD0021A3
:1058E0001320FCF7CAFD00210720FCF7C6FD41F29A
:1058F00090611020FCF7C1FD40F227211120FCF738
:10590000BCFD9D211220FCF7B8FD4FF4C8511320B7
:10591000FCF7B3FD25212920FCF7AFFD0D212B203D
:10592000FCF7ABFD07213020FCF7A7FD40F2033167
:105930003120FCF7A2FD03213220FCF79EFD40F24E
:1059400006213520FCF799FD08213620FCF795FD4E
:1059500040F206413720FCF790FD4FF4417100E022
:1059600058E03820FCF789FD07213920FCF785FD38
:1059700040F202613C20FCF780FD08213D20FCF74D
:105980007CFD00215020FCF778FDEF215120FCF731
:1059900074FD00215220FCF770FD40F23F115320AE
:1059A000FCF76BFD4FF427416020FCF766FD0121F9
:1059B0006120FCF762FD00216A20FCF75EFD0021FA
:1059C0008020FCF75AFD00218120FCF756FD0021C4
:1059D0008220FCF752FD00218320FCF74EFD0021C0
:1059E0008420FCF74AFD00218520FCF746FD1021AC
:1059F0009020FCF742FD4FF4C0619220FCF73DFD82
:105A000040F233110720FCF738FD22210020FCF77B
:105A100034FD1FE78F48808849F2283188427DD1C4
:105A200041F28F01EC20FCF728FD41F23421EF20F8
:105A3000FCF723FD4FF480710120FCF71EFD4FF4AD
:105A4000E0610220FCF719FD41F230010320FCF770
:105A500014FD00210420FCF710FD40F20221082073
:105A6000FCF70BFD00210920FCF707FD00210A20AF
:105A7000FCF703FD01210C20FCF7FFFC00210D20A9
:105A8000FCF7FBFC00210F20FCF7F7FC00211020A5
:105A9000FCF7F3FC07211120FCF7EFFC002112209A
:105AA000FCF7EBFC00211320FCF7E7FC01210720A9
:105AB000FCF7E3FC322001F009FC41F29041102098
:105AC000FCF7DBFC40F227211120FCF7D6FC32204A
:105AD00001F0FCFB8A211220FCF7CFFC322001F000
